{
    "contractName": "Nowver",
    "abi": [
        {
            "inputs": [
                {
                    "internalType": "string",
                    "name": "_metadataUri",
                    "type": "string"
                }
            ],
            "stateMutability": "nonpayable",
            "type": "constructor"
        },
        {
            "anonymous": false,
            "inputs": [
                {
                    "indexed": true,
                    "internalType": "address",
                    "name": "account",
                    "type": "address"
                },
                {
                    "indexed": true,
                    "internalType": "address",
                    "name": "operator",
                    "type": "address"
                },
                {
                    "indexed": false,
                    "internalType": "bool",
                    "name": "approved",
                    "type": "bool"
                }
            ],
            "name": "ApprovalForAll",
            "type": "event"
        },
        {
            "anonymous": false,
            "inputs": [
                {
                    "indexed": false,
                    "internalType": "address",
                    "name": "buyer",
                    "type": "address"
                },
                {
                    "indexed": false,
                    "internalType": "uint256",
                    "name": "tokenId",
                    "type": "uint256"
                },
                {
                    "indexed": false,
                    "internalType": "uint256",
                    "name": "edition",
                    "type": "uint256"
                }
            ],
            "name": "BuyToken",
            "type": "event"
        },
        {
            "anonymous": false,
            "inputs": [
                {
                    "indexed": true,
                    "internalType": "address",
                    "name": "previousOwner",
                    "type": "address"
                },
                {
                    "indexed": true,
                    "internalType": "address",
                    "name": "newOwner",
                    "type": "address"
                }
            ],
            "name": "OwnershipTransferred",
            "type": "event"
        },
        {
            "anonymous": false,
            "inputs": [
                {
                    "indexed": false,
                    "internalType": "address",
                    "name": "account",
                    "type": "address"
                }
            ],
            "name": "Paused",
            "type": "event"
        },
        {
            "anonymous": false,
            "inputs": [
                {
                    "indexed": true,
                    "internalType": "address",
                    "name": "operator",
                    "type": "address"
                },
                {
                    "indexed": true,
                    "internalType": "address",
                    "name": "from",
                    "type": "address"
                },
                {
                    "indexed": true,
                    "internalType": "address",
                    "name": "to",
                    "type": "address"
                },
                {
                    "indexed": false,
                    "internalType": "uint256[]",
                    "name": "ids",
                    "type": "uint256[]"
                },
                {
                    "indexed": false,
                    "internalType": "uint256[]",
                    "name": "values",
                    "type": "uint256[]"
                }
            ],
            "name": "TransferBatch",
            "type": "event"
        },
        {
            "anonymous": false,
            "inputs": [
                {
                    "indexed": true,
                    "internalType": "address",
                    "name": "operator",
                    "type": "address"
                },
                {
                    "indexed": true,
                    "internalType": "address",
                    "name": "from",
                    "type": "address"
                },
                {
                    "indexed": true,
                    "internalType": "address",
                    "name": "to",
                    "type": "address"
                },
                {
                    "indexed": false,
                    "internalType": "uint256",
                    "name": "id",
                    "type": "uint256"
                },
                {
                    "indexed": false,
                    "internalType": "uint256",
                    "name": "value",
                    "type": "uint256"
                }
            ],
            "name": "TransferSingle",
            "type": "event"
        },
        {
            "anonymous": false,
            "inputs": [
                {
                    "indexed": false,
                    "internalType": "string",
                    "name": "value",
                    "type": "string"
                },
                {
                    "indexed": true,
                    "internalType": "uint256",
                    "name": "id",
                    "type": "uint256"
                }
            ],
            "name": "URI",
            "type": "event"
        },
        {
            "anonymous": false,
            "inputs": [
                {
                    "indexed": false,
                    "internalType": "address",
                    "name": "account",
                    "type": "address"
                }
            ],
            "name": "Unpaused",
            "type": "event"
        },
        {
            "inputs": [
                {
                    "internalType": "address",
                    "name": "account",
                    "type": "address"
                },
                {
                    "internalType": "uint256",
                    "name": "id",
                    "type": "uint256"
                }
            ],
            "name": "balanceOf",
            "outputs": [
                {
                    "internalType": "uint256",
                    "name": "",
                    "type": "uint256"
                }
            ],
            "stateMutability": "view",
            "type": "function"
        },
        {
            "inputs": [
                {
                    "internalType": "address[]",
                    "name": "accounts",
                    "type": "address[]"
                },
                {
                    "internalType": "uint256[]",
                    "name": "ids",
                    "type": "uint256[]"
                }
            ],
            "name": "balanceOfBatch",
            "outputs": [
                {
                    "internalType": "uint256[]",
                    "name": "",
                    "type": "uint256[]"
                }
            ],
            "stateMutability": "view",
            "type": "function"
        },
        {
            "inputs": [
                {
                    "internalType": "address",
                    "name": "account",
                    "type": "address"
                },
                {
                    "internalType": "uint256",
                    "name": "id",
                    "type": "uint256"
                },
                {
                    "internalType": "uint256",
                    "name": "value",
                    "type": "uint256"
                }
            ],
            "name": "burn",
            "outputs": [],
            "stateMutability": "nonpayable",
            "type": "function"
        },
        {
            "inputs": [
                {
                    "internalType": "address",
                    "name": "account",
                    "type": "address"
                },
                {
                    "internalType": "uint256[]",
                    "name": "ids",
                    "type": "uint256[]"
                },
                {
                    "internalType": "uint256[]",
                    "name": "values",
                    "type": "uint256[]"
                }
            ],
            "name": "burnBatch",
            "outputs": [],
            "stateMutability": "nonpayable",
            "type": "function"
        },
        {
            "inputs": [
                {
                    "internalType": "uint256",
                    "name": "_id",
                    "type": "uint256"
                }
            ],
            "name": "exists",
            "outputs": [
                {
                    "internalType": "bool",
                    "name": "",
                    "type": "bool"
                }
            ],
            "stateMutability": "view",
            "type": "function"
        },
        {
            "inputs": [
                {
                    "internalType": "address",
                    "name": "account",
                    "type": "address"
                },
                {
                    "internalType": "address",
                    "name": "operator",
                    "type": "address"
                }
            ],
            "name": "isApprovedForAll",
            "outputs": [
                {
                    "internalType": "bool",
                    "name": "",
                    "type": "bool"
                }
            ],
            "stateMutability": "view",
            "type": "function"
        },
        {
            "inputs": [],
            "name": "metadataBaseURI",
            "outputs": [
                {
                    "internalType": "string",
                    "name": "",
                    "type": "string"
                }
            ],
            "stateMutability": "view",
            "type": "function"
        },
        {
            "inputs": [
                {
                    "internalType": "uint256",
                    "name": "_id",
                    "type": "uint256"
                }
            ],
            "name": "mint",
            "outputs": [
                {
                    "internalType": "uint256",
                    "name": "",
                    "type": "uint256"
                }
            ],
            "stateMutability": "payable",
            "type": "function"
        },
        {
            "inputs": [],
            "name": "owner",
            "outputs": [
                {
                    "internalType": "address",
                    "name": "",
                    "type": "address"
                }
            ],
            "stateMutability": "view",
            "type": "function"
        },
        {
            "inputs": [],
            "name": "pause",
            "outputs": [],
            "stateMutability": "nonpayable",
            "type": "function"
        },
        {
            "inputs": [],
            "name": "paused",
            "outputs": [
                {
                    "internalType": "bool",
                    "name": "",
                    "type": "bool"
                }
            ],
            "stateMutability": "view",
            "type": "function"
        },
        {
            "inputs": [
                {
                    "internalType": "uint256",
                    "name": "_id",
                    "type": "uint256"
                },
                {
                    "internalType": "uint256",
                    "name": "_supply",
                    "type": "uint256"
                },
                {
                    "internalType": "uint256",
                    "name": "_price",
                    "type": "uint256"
                }
            ],
            "name": "registerToken",
            "outputs": [],
            "stateMutability": "nonpayable",
            "type": "function"
        },
        {
            "inputs": [],
            "name": "renounceOwnership",
            "outputs": [],
            "stateMutability": "nonpayable",
            "type": "function"
        },
        {
            "inputs": [
                {
                    "internalType": "address",
                    "name": "from",
                    "type": "address"
                },
                {
                    "internalType": "address",
                    "name": "to",
                    "type": "address"
                },
                {
                    "internalType": "uint256[]",
                    "name": "ids",
                    "type": "uint256[]"
                },
                {
                    "internalType": "uint256[]",
                    "name": "amounts",
                    "type": "uint256[]"
                },
                {
                    "internalType": "bytes",
                    "name": "data",
                    "type": "bytes"
                }
            ],
            "name": "safeBatchTransferFrom",
            "outputs": [],
            "stateMutability": "nonpayable",
            "type": "function"
        },
        {
            "inputs": [
                {
                    "internalType": "address",
                    "name": "from",
                    "type": "address"
                },
                {
                    "internalType": "address",
                    "name": "to",
                    "type": "address"
                },
                {
                    "internalType": "uint256",
                    "name": "id",
                    "type": "uint256"
                },
                {
                    "internalType": "uint256",
                    "name": "amount",
                    "type": "uint256"
                },
                {
                    "internalType": "bytes",
                    "name": "data",
                    "type": "bytes"
                }
            ],
            "name": "safeTransferFrom",
            "outputs": [],
            "stateMutability": "nonpayable",
            "type": "function"
        },
        {
            "inputs": [
                {
                    "internalType": "address",
                    "name": "operator",
                    "type": "address"
                },
                {
                    "internalType": "bool",
                    "name": "approved",
                    "type": "bool"
                }
            ],
            "name": "setApprovalForAll",
            "outputs": [],
            "stateMutability": "nonpayable",
            "type": "function"
        },
        {
            "inputs": [
                {
                    "internalType": "string",
                    "name": "_metadataBaseURI",
                    "type": "string"
                }
            ],
            "name": "setURI",
            "outputs": [],
            "stateMutability": "nonpayable",
            "type": "function"
        },
        {
            "inputs": [
                {
                    "internalType": "bytes4",
                    "name": "interfaceId",
                    "type": "bytes4"
                }
            ],
            "name": "supportsInterface",
            "outputs": [
                {
                    "internalType": "bool",
                    "name": "",
                    "type": "bool"
                }
            ],
            "stateMutability": "view",
            "type": "function"
        },
        {
            "inputs": [
                {
                    "internalType": "uint256",
                    "name": "",
                    "type": "uint256"
                }
            ],
            "name": "tokens",
            "outputs": [
                {
                    "internalType": "uint256",
                    "name": "supply",
                    "type": "uint256"
                },
                {
                    "internalType": "uint256",
                    "name": "count",
                    "type": "uint256"
                },
                {
                    "internalType": "uint256",
                    "name": "price",
                    "type": "uint256"
                }
            ],
            "stateMutability": "view",
            "type": "function"
        },
        {
            "inputs": [],
            "name": "tokensCount",
            "outputs": [
                {
                    "internalType": "uint256",
                    "name": "",
                    "type": "uint256"
                }
            ],
            "stateMutability": "view",
            "type": "function"
        },
        {
            "inputs": [
                {
                    "internalType": "address",
                    "name": "newOwner",
                    "type": "address"
                }
            ],
            "name": "transferOwnership",
            "outputs": [],
            "stateMutability": "nonpayable",
            "type": "function"
        },
        {
            "inputs": [],
            "name": "unpause",
            "outputs": [],
            "stateMutability": "nonpayable",
            "type": "function"
        },
        {
            "inputs": [
                {
                    "internalType": "uint256",
                    "name": "_id",
                    "type": "uint256"
                }
            ],
            "name": "uri",
            "outputs": [
                {
                    "internalType": "string",
                    "name": "",
                    "type": "string"
                }
            ],
            "stateMutability": "view",
            "type": "function"
        },
        {
            "inputs": [],
            "name": "withdraw",
            "outputs": [],
            "stateMutability": "nonpayable",
            "type": "function"
        }
    ],
    "bytecode": "608060405260006006553480156200001657600080fd5b5060405162002a3838038062002a38833981016040819052620000399162000176565b80620000458162000065565b5062000051336200007e565b506003805460ff60a01b19169055620002a5565b80516200007a906004906020840190620000d0565b5050565b600380546001600160a01b038381166001600160a01b0319831681179093556040519116919082907f8be0079c531659141344cd1fd0a4f28419497f9722a3daafe3b4186f6b6457e090600090a35050565b828054620000de9062000252565b90600052602060002090601f0160209004810192826200010257600085556200014d565b82601f106200011d57805160ff19168380011785556200014d565b828001600101855582156200014d579182015b828111156200014d57825182559160200191906001019062000130565b506200015b9291506200015f565b5090565b5b808211156200015b576000815560010162000160565b600060208083850312156200018a57600080fd5b82516001600160401b0380821115620001a257600080fd5b818501915085601f830112620001b757600080fd5b815181811115620001cc57620001cc6200028f565b604051601f8201601f19908116603f01168101908382118183101715620001f757620001f76200028f565b8160405282815288868487010111156200021057600080fd5b600093505b8284101562000234578484018601518185018701529285019262000215565b82841115620002465760008684830101525b98975050505050505050565b600181811c908216806200026757607f821691505b602082108114156200028957634e487b7160e01b600052602260045260246000fd5b50919050565b634e487b7160e01b600052604160045260246000fd5b61278380620002b56000396000f3fe60806040526004361061014a5760003560e01c8063715018a6116100b6578063a64ed8ba1161006f578063a64ed8ba146103d7578063bf303173146103ed578063e985e9c51461040d578063f242432a14610456578063f2fde38b14610476578063f5298aca1461049657600080fd5b8063715018a61461033d5780638456cb59146103525780638da5cb5b146103675780639f3d1a2a1461038f578063a0712d68146103a4578063a22cb465146103b757600080fd5b80633f4ba83a116101085780633f4ba83a146102365780634e1273f41461024b5780634f558e79146102785780634f64b2be146102a75780635c975abb146102fe5780636b20c4541461031d57600080fd5b8062fdd58e1461014f57806301ffc9a71461018257806302fe5305146101b25780630e89341c146101d45780632eb2c2d6146102015780633ccfd60b14610221575b600080fd5b34801561015b57600080fd5b5061016f61016a366004611e9b565b6104b6565b6040519081526020015b60405180910390f35b34801561018e57600080fd5b506101a261019d366004611fc9565b61054d565b6040519015158152602001610179565b3480156101be57600080fd5b506101d26101cd366004612003565b61055e565b005b3480156101e057600080fd5b506101f46101ef36600461204c565b610594565b60405161017991906122aa565b34801561020d57600080fd5b506101d261021c366004611cdc565b6105c8565b34801561022d57600080fd5b506101d261065f565b34801561024257600080fd5b506101d261071e565b34801561025757600080fd5b5061026b610266366004611ef8565b6107a2565b6040516101799190612272565b34801561028457600080fd5b506101a261029336600461204c565b600090815260056020526040902054151590565b3480156102b357600080fd5b506102e36102c236600461204c565b60056020526000908152604090208054600182015460029092015490919083565b60408051938452602084019290925290820152606001610179565b34801561030a57600080fd5b50600354600160a01b900460ff166101a2565b34801561032957600080fd5b506101d2610338366004611deb565b6108cc565b34801561034957600080fd5b506101d2610939565b34801561035e57600080fd5b506101d261096d565b34801561037357600080fd5b506003546040516001600160a01b039091168152602001610179565b34801561039b57600080fd5b506101f46109c9565b61016f6103b236600461204c565b610a57565b3480156103c357600080fd5b506101d26103d2366004611e5f565b610bd3565b3480156103e357600080fd5b5061016f60065481565b3480156103f957600080fd5b506101d2610408366004612065565b610caa565b34801561041957600080fd5b506101a2610428366004611ca9565b6001600160a01b03918216600090815260016020908152604080832093909416825291909152205460ff1690565b34801561046257600080fd5b506101d2610471366004611d86565b610dc2565b34801561048257600080fd5b506101d2610491366004611c8e565b610e07565b3480156104a257600080fd5b506101d26104b1366004611ec5565b610e9f565b60006001600160a01b0383166105275760405162461bcd60e51b815260206004820152602b60248201527f455243313135353a2062616c616e636520717565727920666f7220746865207a60448201526a65726f206164647265737360a81b60648201526084015b60405180910390fd5b506000908152602081815260408083206001600160a01b03949094168352929052205490565b600061055882610f0c565b92915050565b6003546001600160a01b031633146105885760405162461bcd60e51b815260040161051e9061248e565b61059181610f5c565b50565b606060046105a183610f73565b6040516020016105b2929190612114565b6040516020818303038152906040529050919050565b6001600160a01b0385163314806105e457506105e48533610428565b61064b5760405162461bcd60e51b815260206004820152603260248201527f455243313135353a207472616e736665722063616c6c6572206973206e6f74206044820152711bdddb995c881b9bdc88185c1c1c9bdd995960721b606482015260840161051e565b6106588585858585611079565b5050505050565b4760006106746003546001600160a01b031690565b90506000816001600160a01b03168360405160006040518083038185875af1925050503d80600081146106c3576040519150601f19603f3d011682016040523d82523d6000602084013e6106c8565b606091505b50509050806107195760405162461bcd60e51b815260206004820152601a60248201527f4e6f777665723a206661696c656420746f207769746864726177000000000000604482015260640161051e565b505050565b6003546001600160a01b031633146107485760405162461bcd60e51b815260040161051e9061248e565b600354600160a01b900460ff166107985760405162461bcd60e51b815260206004820152601460248201527314185d5cd8589b194e881b9bdd081c185d5cd95960621b604482015260640161051e565b6107a0611223565b565b606081518351146108075760405162461bcd60e51b815260206004820152602960248201527f455243313135353a206163636f756e747320616e6420696473206c656e677468604482015268040dad2e6dac2e8c6d60bb1b606482015260840161051e565b6000835167ffffffffffffffff8111156108235761082361267b565b60405190808252806020026020018201604052801561084c578160200160208202803683370190505b50905060005b84518110156108c45761089785828151811061087057610870612665565b602002602001015185838151811061088a5761088a612665565b60200260200101516104b6565b8282815181106108a9576108a9612665565b60209081029190910101526108bd8161260a565b9050610852565b509392505050565b600354600160a01b900460ff16156108f65760405162461bcd60e51b815260040161051e90612392565b6001600160a01b03831633148061091257506109128333610428565b61092e5760405162461bcd60e51b815260040161051e90612349565b6107198383836112c0565b6003546001600160a01b031633146109635760405162461bcd60e51b815260040161051e9061248e565b6107a0600061144e565b6003546001600160a01b031633146109975760405162461bcd60e51b815260040161051e9061248e565b600354600160a01b900460ff16156109c15760405162461bcd60e51b815260040161051e90612392565b6107a06114a0565b600480546109d6906125a2565b80601f0160208091040260200160405190810160405280929190818152602001828054610a02906125a2565b8015610a4f5780601f10610a2457610100808354040283529160200191610a4f565b820191906000526020600020905b815481529060010190602001808311610a3257829003601f168201915b505050505081565b600081815260056020526040812054610ab25760405162461bcd60e51b815260206004820152601b60248201527f4e6f777665723a20746f6b656e20646f65736e27742065786973740000000000604482015260640161051e565b6000828152600560205260409020600201543414610b125760405162461bcd60e51b815260206004820152601760248201527f4e6f777665723a20696e636f7272656374207072696365000000000000000000604482015260640161051e565b600082815260056020526040902080546001918201549091610b34919061252f565b1115610b795760405162461bcd60e51b81526020600482015260146024820152734e6f777665723a206f7574206f6620626f6e647360601b604482015260640161051e565b6001600560008481526020019081526020016000206001016000828254610ba0919061252f565b90915550506000828152600560205260409020600101546105583384600160405180602001604052806000815250611505565b336001600160a01b0383161415610c3e5760405162461bcd60e51b815260206004820152602960248201527f455243313135353a2073657474696e6720617070726f76616c20737461747573604482015268103337b91039b2b63360b91b606482015260840161051e565b3360008181526001602090815260408083206001600160a01b03871680855290835292819020805460ff191686151590811790915590519081529192917f17307eab39ab6107e8899845ad3d59bd9653f200f220920489ca2b5937696c31910160405180910390a35050565b6003546001600160a01b03163314610cd45760405162461bcd60e51b815260040161051e9061248e565b60008381526005602052604090205415610d305760405162461bcd60e51b815260206004820181905260248201527f4e6f777665723a20746f6b656e20616c72656164792072656769737465726564604482015260640161051e565b60008211610d8e5760405162461bcd60e51b815260206004820152602560248201527f4e6f777665723a20737570706c79206d75737420626520677265617465722074604482015264068616e20360dc1b606482015260840161051e565b60008381526005602052604081208381556002018290556006805460019290610db890849061252f565b9091555050505050565b6001600160a01b038516331480610dde5750610dde8533610428565b610dfa5760405162461bcd60e51b815260040161051e90612349565b6106588585858585611615565b6003546001600160a01b03163314610e315760405162461bcd60e51b815260040161051e9061248e565b6001600160a01b038116610e965760405162461bcd60e51b815260206004820152602660248201527f4f776e61626c653a206e6577206f776e657220697320746865207a65726f206160448201526564647265737360d01b606482015260840161051e565b6105918161144e565b600354600160a01b900460ff1615610ec95760405162461bcd60e51b815260040161051e90612392565b6001600160a01b038316331480610ee55750610ee58333610428565b610f015760405162461bcd60e51b815260040161051e90612349565b610719838383611732565b60006001600160e01b03198216636cdb3d1360e11b1480610f3d57506001600160e01b031982166303a24d0760e21b145b8061055857506301ffc9a760e01b6001600160e01b0319831614610558565b8051610f6f906004906020840190611add565b5050565b606081610f975750506040805180820190915260018152600360fc1b602082015290565b8160005b8115610fc15780610fab8161260a565b9150610fba9050600a83612547565b9150610f9b565b60008167ffffffffffffffff811115610fdc57610fdc61267b565b6040519080825280601f01601f191660200182016040528015611006576020820181803683370190505b5090505b84156110715761101b60018361255b565b9150611028600a86612625565b61103390603061252f565b60f81b81838151811061104857611048612665565b60200101906001600160f81b031916908160001a90535061106a600a86612547565b945061100a565b949350505050565b815183511461109a5760405162461bcd60e51b815260040161051e906124c3565b6001600160a01b0384166110c05760405162461bcd60e51b815260040161051e906123bc565b336110cf818787878787611833565b60005b84518110156111b55760008582815181106110ef576110ef612665565b60200260200101519050600085838151811061110d5761110d612665565b602090810291909101810151600084815280835260408082206001600160a01b038e16835290935291909120549091508181101561115d5760405162461bcd60e51b815260040161051e90612444565b6000838152602081815260408083206001600160a01b038e8116855292528083208585039055908b1682528120805484929061119a90849061252f565b92505081905550505050806111ae9061260a565b90506110d2565b50846001600160a01b0316866001600160a01b0316826001600160a01b03167f4a39dc06d4c0dbc64b70af90fd698a233a518aa5d07e595d983b8c0526c8f7fb8787604051611205929190612285565b60405180910390a461121b81878787878761185d565b505050505050565b600354600160a01b900460ff166112735760405162461bcd60e51b815260206004820152601460248201527314185d5cd8589b194e881b9bdd081c185d5cd95960621b604482015260640161051e565b6003805460ff60a01b191690557f5db9ee0a495bf2e6ff9c91a7834c1ba4fdd244a5e8aa4e537bd38aeae4b073aa335b6040516001600160a01b03909116815260200160405180910390a1565b6001600160a01b0383166112e65760405162461bcd60e51b815260040161051e90612401565b80518251146113075760405162461bcd60e51b815260040161051e906124c3565b600033905061132a81856000868660405180602001604052806000815250611833565b60005b83518110156113ef57600084828151811061134a5761134a612665565b60200260200101519050600084838151811061136857611368612665565b602090810291909101810151600084815280835260408082206001600160a01b038c1683529093529190912054909150818110156113b85760405162461bcd60e51b815260040161051e90612305565b6000928352602083815260408085206001600160a01b038b16865290915290922091039055806113e78161260a565b91505061132d565b5060006001600160a01b0316846001600160a01b0316826001600160a01b03167f4a39dc06d4c0dbc64b70af90fd698a233a518aa5d07e595d983b8c0526c8f7fb8686604051611440929190612285565b60405180910390a450505050565b600380546001600160a01b038381166001600160a01b0319831681179093556040519116919082907f8be0079c531659141344cd1fd0a4f28419497f9722a3daafe3b4186f6b6457e090600090a35050565b600354600160a01b900460ff16156114ca5760405162461bcd60e51b815260040161051e90612392565b6003805460ff60a01b1916600160a01b1790557f62e78cea01bee320cd4e420270b5ea74000d11b0c9f74754ebdbfc544b05a2586112a33390565b6001600160a01b0384166115655760405162461bcd60e51b815260206004820152602160248201527f455243313135353a206d696e7420746f20746865207a65726f206164647265736044820152607360f81b606482015260840161051e565b3361158581600087611576886119c8565b61157f886119c8565b87611833565b6000848152602081815260408083206001600160a01b0389168452909152812080548592906115b590849061252f565b909155505060408051858152602081018590526001600160a01b0380881692600092918516917fc3d58168c5ae7397731d063d5bbf3d657854427343f4c083240f7aacaa2d0f62910160405180910390a461065881600087878787611a13565b6001600160a01b03841661163b5760405162461bcd60e51b815260040161051e906123bc565b3361164b818787611576886119c8565b6000848152602081815260408083206001600160a01b038a1684529091529020548381101561168c5760405162461bcd60e51b815260040161051e90612444565b6000858152602081815260408083206001600160a01b038b81168552925280832087850390559088168252812080548692906116c990849061252f565b909155505060408051868152602081018690526001600160a01b03808916928a821692918616917fc3d58168c5ae7397731d063d5bbf3d657854427343f4c083240f7aacaa2d0f62910160405180910390a4611729828888888888611a13565b50505050505050565b6001600160a01b0383166117585760405162461bcd60e51b815260040161051e90612401565b3361178781856000611769876119c8565b611772876119c8565b60405180602001604052806000815250611833565b6000838152602081815260408083206001600160a01b0388168452909152902054828110156117c85760405162461bcd60e51b815260040161051e90612305565b6000848152602081815260408083206001600160a01b03898116808652918452828520888703905582518981529384018890529092908616917fc3d58168c5ae7397731d063d5bbf3d657854427343f4c083240f7aacaa2d0f62910160405180910390a45050505050565b600354600160a01b900460ff161561121b5760405162461bcd60e51b815260040161051e90612392565b6001600160a01b0384163b1561121b5760405163bc197c8160e01b81526001600160a01b0385169063bc197c81906118a190899089908890889088906004016121cf565b602060405180830381600087803b1580156118bb57600080fd5b505af19250505080156118eb575060408051601f3d908101601f191682019092526118e891810190611fe6565b60015b611998576118f7612691565b806308c379a01415611931575061190c6126ad565b806119175750611933565b8060405162461bcd60e51b815260040161051e91906122aa565b505b60405162461bcd60e51b815260206004820152603460248201527f455243313135353a207472616e7366657220746f206e6f6e20455243313135356044820152732932b1b2b4bb32b91034b6b83632b6b2b73a32b960611b606482015260840161051e565b6001600160e01b0319811663bc197c8160e01b146117295760405162461bcd60e51b815260040161051e906122bd565b60408051600180825281830190925260609160009190602080830190803683370190505090508281600081518110611a0257611a02612665565b602090810291909101015292915050565b6001600160a01b0384163b1561121b5760405163f23a6e6160e01b81526001600160a01b0385169063f23a6e6190611a57908990899088908890889060040161222d565b602060405180830381600087803b158015611a7157600080fd5b505af1925050508015611aa1575060408051601f3d908101601f19168201909252611a9e91810190611fe6565b60015b611aad576118f7612691565b6001600160e01b0319811663f23a6e6160e01b146117295760405162461bcd60e51b815260040161051e906122bd565b828054611ae9906125a2565b90600052602060002090601f016020900481019282611b0b5760008555611b51565b82601f10611b2457805160ff1916838001178555611b51565b82800160010185558215611b51579182015b82811115611b51578251825591602001919060010190611b36565b50611b5d929150611b61565b5090565b5b80821115611b5d5760008155600101611b62565b600067ffffffffffffffff831115611b9057611b9061267b565b604051611ba7601f8501601f1916602001826125dd565b809150838152848484011115611bbc57600080fd5b83836020830137600060208583010152509392505050565b80356001600160a01b0381168114611beb57600080fd5b919050565b600082601f830112611c0157600080fd5b81356020611c0e8261250b565b604051611c1b82826125dd565b8381528281019150858301600585901b87018401881015611c3b57600080fd5b60005b85811015611c5a57813584529284019290840190600101611c3e565b5090979650505050505050565b600082601f830112611c7857600080fd5b611c8783833560208501611b76565b9392505050565b600060208284031215611ca057600080fd5b611c8782611bd4565b60008060408385031215611cbc57600080fd5b611cc583611bd4565b9150611cd360208401611bd4565b90509250929050565b600080600080600060a08688031215611cf457600080fd5b611cfd86611bd4565b9450611d0b60208701611bd4565b9350604086013567ffffffffffffffff80821115611d2857600080fd5b611d3489838a01611bf0565b94506060880135915080821115611d4a57600080fd5b611d5689838a01611bf0565b93506080880135915080821115611d6c57600080fd5b50611d7988828901611c67565b9150509295509295909350565b600080600080600060a08688031215611d9e57600080fd5b611da786611bd4565b9450611db560208701611bd4565b93506040860135925060608601359150608086013567ffffffffffffffff811115611ddf57600080fd5b611d7988828901611c67565b600080600060608486031215611e0057600080fd5b611e0984611bd4565b9250602084013567ffffffffffffffff80821115611e2657600080fd5b611e3287838801611bf0565b93506040860135915080821115611e4857600080fd5b50611e5586828701611bf0565b9150509250925092565b60008060408385031215611e7257600080fd5b611e7b83611bd4565b915060208301358015158114611e9057600080fd5b809150509250929050565b60008060408385031215611eae57600080fd5b611eb783611bd4565b946020939093013593505050565b600080600060608486031215611eda57600080fd5b611ee384611bd4565b95602085013595506040909401359392505050565b60008060408385031215611f0b57600080fd5b823567ffffffffffffffff80821115611f2357600080fd5b818501915085601f830112611f3757600080fd5b81356020611f448261250b565b604051611f5182826125dd565b8381528281019150858301600585901b870184018b1015611f7157600080fd5b600096505b84871015611f9b57611f8781611bd4565b835260019690960195918301918301611f76565b5096505086013592505080821115611fb257600080fd5b50611fbf85828601611bf0565b9150509250929050565b600060208284031215611fdb57600080fd5b8135611c8781612737565b600060208284031215611ff857600080fd5b8151611c8781612737565b60006020828403121561201557600080fd5b813567ffffffffffffffff81111561202c57600080fd5b8201601f8101841361203d57600080fd5b61107184823560208401611b76565b60006020828403121561205e57600080fd5b5035919050565b60008060006060848603121561207a57600080fd5b505081359360208301359350604090920135919050565b600081518084526020808501945080840160005b838110156120c1578151875295820195908201906001016120a5565b509495945050505050565b600081518084526120e4816020860160208601612572565b601f01601f19169290920160200192915050565b6000815161210a818560208601612572565b9290920192915050565b600080845481600182811c91508083168061213057607f831692505b602080841082141561215057634e487b7160e01b86526022600452602486fd5b8180156121645760018114612175576121a2565b60ff198616895284890196506121a2565b60008b81526020902060005b8681101561219a5781548b820152908501908301612181565b505084890196505b5050505050506121c66121b582866120f8565b64173539b7b760d91b815260050190565b95945050505050565b6001600160a01b0386811682528516602082015260a0604082018190526000906121fb90830186612091565b828103606084015261220d8186612091565b9050828103608084015261222181856120cc565b98975050505050505050565b6001600160a01b03868116825285166020820152604081018490526060810183905260a060808201819052600090612267908301846120cc565b979650505050505050565b602081526000611c876020830184612091565b6040815260006122986040830185612091565b82810360208401526121c68185612091565b602081526000611c8760208301846120cc565b60208082526028908201527f455243313135353a204552433131353552656365697665722072656a656374656040820152676420746f6b656e7360c01b606082015260800190565b60208082526024908201527f455243313135353a206275726e20616d6f756e7420657863656564732062616c604082015263616e636560e01b606082015260800190565b60208082526029908201527f455243313135353a2063616c6c6572206973206e6f74206f776e6572206e6f7260408201526808185c1c1c9bdd995960ba1b606082015260800190565b60208082526010908201526f14185d5cd8589b194e881c185d5cd95960821b604082015260600190565b60208082526025908201527f455243313135353a207472616e7366657220746f20746865207a65726f206164604082015264647265737360d81b606082015260800190565b60208082526023908201527f455243313135353a206275726e2066726f6d20746865207a65726f206164647260408201526265737360e81b606082015260800190565b6020808252602a908201527f455243313135353a20696e73756666696369656e742062616c616e636520666f60408201526939103a3930b739b332b960b11b606082015260800190565b6020808252818101527f4f776e61626c653a2063616c6c6572206973206e6f7420746865206f776e6572604082015260600190565b60208082526028908201527f455243313135353a2069647320616e6420616d6f756e7473206c656e677468206040820152670dad2e6dac2e8c6d60c31b606082015260800190565b600067ffffffffffffffff8211156125255761252561267b565b5060051b60200190565b6000821982111561254257612542612639565b500190565b6000826125565761255661264f565b500490565b60008282101561256d5761256d612639565b500390565b60005b8381101561258d578181015183820152602001612575565b8381111561259c576000848401525b50505050565b600181811c908216806125b657607f821691505b602082108114156125d757634e487b7160e01b600052602260045260246000fd5b50919050565b601f8201601f1916810167ffffffffffffffff811182821017156126035761260361267b565b6040525050565b600060001982141561261e5761261e612639565b5060010190565b6000826126345761263461264f565b500690565b634e487b7160e01b600052601160045260246000fd5b634e487b7160e01b600052601260045260246000fd5b634e487b7160e01b600052603260045260246000fd5b634e487b7160e01b600052604160045260246000fd5b600060033d11156126aa5760046000803e5060005160e01c5b90565b600060443d10156126bb5790565b6040516003193d81016004833e81513d67ffffffffffffffff81602484011181841117156126eb57505050505090565b82850191508151818111156127035750505050505090565b843d870101602082850101111561271d5750505050505090565b61272c602082860101876125dd565b509095945050505050565b6001600160e01b03198116811461059157600080fdfea26469706673582212207f9f3bb8baa3691bdf4fa03d906333f7a58ae110957fdc1f5bac4faf053d140064736f6c63430008070033",
    "sourcePath": "/Users/nicolas/Workspace/nowver-contracts/contracts/Nowver.sol",
    "compiler": {
        "name": "solc",
        "version": "0.8.7+commit.e28d00a7"
    },
    "functionHashes": {
        "balanceOf(address,uint256)": "00fdd58e",
        "balanceOfBatch(address[],uint256[])": "4e1273f4",
        "burn(address,uint256,uint256)": "f5298aca",
        "burnBatch(address,uint256[],uint256[])": "6b20c454",
        "exists(uint256)": "4f558e79",
        "isApprovedForAll(address,address)": "e985e9c5",
        "metadataBaseURI()": "9f3d1a2a",
        "mint(uint256)": "a0712d68",
        "owner()": "8da5cb5b",
        "pause()": "8456cb59",
        "paused()": "5c975abb",
        "registerToken(uint256,uint256,uint256)": "bf303173",
        "renounceOwnership()": "715018a6",
        "safeBatchTransferFrom(address,address,uint256[],uint256[],bytes)": "2eb2c2d6",
        "safeTransferFrom(address,address,uint256,uint256,bytes)": "f242432a",
        "setApprovalForAll(address,bool)": "a22cb465",
        "setURI(string)": "02fe5305",
        "supportsInterface(bytes4)": "01ffc9a7",
        "tokens(uint256)": "4f64b2be",
        "tokensCount()": "a64ed8ba",
        "transferOwnership(address)": "f2fde38b",
        "unpause()": "3f4ba83a",
        "uri(uint256)": "0e89341c",
        "withdraw()": "3ccfd60b"
    },
    "gasEstimates": {
        "creation": {
            "codeDepositCost": "2023000",
            "executionCost": "infinite",
            "totalCost": "infinite"
        },
        "external": {
            "balanceOf(address,uint256)": "2695",
            "balanceOfBatch(address[],uint256[])": "infinite",
            "burn(address,uint256,uint256)": "infinite",
            "burnBatch(address,uint256[],uint256[])": "infinite",
            "exists(uint256)": "2517",
            "isApprovedForAll(address,address)": "infinite",
            "metadataBaseURI()": "infinite",
            "mint(uint256)": "infinite",
            "owner()": "2368",
            "pause()": "31967",
            "paused()": "2432",
            "registerToken(uint256,uint256,uint256)": "73251",
            "renounceOwnership()": "28140",
            "safeBatchTransferFrom(address,address,uint256[],uint256[],bytes)": "infinite",
            "safeTransferFrom(address,address,uint256,uint256,bytes)": "infinite",
            "setApprovalForAll(address,bool)": "26761",
            "setURI(string)": "infinite",
            "supportsInterface(bytes4)": "infinite",
            "tokens(uint256)": "6802",
            "tokensCount()": "2306",
            "transferOwnership(address)": "28422",
            "unpause()": "31913",
            "uri(uint256)": "infinite",
            "withdraw()": "infinite"
        },
        "internal": {
            "_beforeTokenTransfer(address,address,address,uint256[] memory,uint256[] memory,bytes memory)": "infinite",
            "_setURI(string memory)": "infinite"
        }
    }
}