{
  "address": "0x5FbDB2315678afecb367f032d93F642f64180aa3",
  "abi": [
    {
      "inputs": [],
      "stateMutability": "nonpayable",
      "type": "constructor"
    },
    {
      "anonymous": false,
      "inputs": [
        {
          "indexed": true,
          "internalType": "address",
          "name": "account",
          "type": "address"
        },
        {
          "indexed": true,
          "internalType": "address",
          "name": "operator",
          "type": "address"
        },
        {
          "indexed": false,
          "internalType": "bool",
          "name": "approved",
          "type": "bool"
        }
      ],
      "name": "ApprovalForAll",
      "type": "event"
    },
    {
      "anonymous": false,
      "inputs": [
        {
          "indexed": true,
          "internalType": "address",
          "name": "previousOwner",
          "type": "address"
        },
        {
          "indexed": true,
          "internalType": "address",
          "name": "newOwner",
          "type": "address"
        }
      ],
      "name": "OwnershipTransferred",
      "type": "event"
    },
    {
      "anonymous": false,
      "inputs": [
        {
          "indexed": false,
          "internalType": "address",
          "name": "account",
          "type": "address"
        }
      ],
      "name": "Paused",
      "type": "event"
    },
    {
      "anonymous": false,
      "inputs": [
        {
          "indexed": true,
          "internalType": "address",
          "name": "operator",
          "type": "address"
        },
        {
          "indexed": true,
          "internalType": "address",
          "name": "from",
          "type": "address"
        },
        {
          "indexed": true,
          "internalType": "address",
          "name": "to",
          "type": "address"
        },
        {
          "indexed": false,
          "internalType": "uint256[]",
          "name": "ids",
          "type": "uint256[]"
        },
        {
          "indexed": false,
          "internalType": "uint256[]",
          "name": "values",
          "type": "uint256[]"
        }
      ],
      "name": "TransferBatch",
      "type": "event"
    },
    {
      "anonymous": false,
      "inputs": [
        {
          "indexed": true,
          "internalType": "address",
          "name": "operator",
          "type": "address"
        },
        {
          "indexed": true,
          "internalType": "address",
          "name": "from",
          "type": "address"
        },
        {
          "indexed": true,
          "internalType": "address",
          "name": "to",
          "type": "address"
        },
        {
          "indexed": false,
          "internalType": "uint256",
          "name": "id",
          "type": "uint256"
        },
        {
          "indexed": false,
          "internalType": "uint256",
          "name": "value",
          "type": "uint256"
        }
      ],
      "name": "TransferSingle",
      "type": "event"
    },
    {
      "anonymous": false,
      "inputs": [
        {
          "indexed": false,
          "internalType": "string",
          "name": "value",
          "type": "string"
        },
        {
          "indexed": true,
          "internalType": "uint256",
          "name": "id",
          "type": "uint256"
        }
      ],
      "name": "URI",
      "type": "event"
    },
    {
      "anonymous": false,
      "inputs": [
        {
          "indexed": false,
          "internalType": "address",
          "name": "account",
          "type": "address"
        }
      ],
      "name": "Unpaused",
      "type": "event"
    },
    {
      "inputs": [
        {
          "internalType": "address",
          "name": "account",
          "type": "address"
        },
        {
          "internalType": "uint256",
          "name": "id",
          "type": "uint256"
        }
      ],
      "name": "balanceOf",
      "outputs": [
        {
          "internalType": "uint256",
          "name": "",
          "type": "uint256"
        }
      ],
      "stateMutability": "view",
      "type": "function"
    },
    {
      "inputs": [
        {
          "internalType": "address[]",
          "name": "accounts",
          "type": "address[]"
        },
        {
          "internalType": "uint256[]",
          "name": "ids",
          "type": "uint256[]"
        }
      ],
      "name": "balanceOfBatch",
      "outputs": [
        {
          "internalType": "uint256[]",
          "name": "",
          "type": "uint256[]"
        }
      ],
      "stateMutability": "view",
      "type": "function"
    },
    {
      "inputs": [
        {
          "internalType": "address",
          "name": "account",
          "type": "address"
        },
        {
          "internalType": "uint256",
          "name": "id",
          "type": "uint256"
        },
        {
          "internalType": "uint256",
          "name": "value",
          "type": "uint256"
        }
      ],
      "name": "burn",
      "outputs": [],
      "stateMutability": "nonpayable",
      "type": "function"
    },
    {
      "inputs": [
        {
          "internalType": "address",
          "name": "account",
          "type": "address"
        },
        {
          "internalType": "uint256[]",
          "name": "ids",
          "type": "uint256[]"
        },
        {
          "internalType": "uint256[]",
          "name": "values",
          "type": "uint256[]"
        }
      ],
      "name": "burnBatch",
      "outputs": [],
      "stateMutability": "nonpayable",
      "type": "function"
    },
    {
      "inputs": [
        {
          "internalType": "uint256",
          "name": "_id",
          "type": "uint256"
        }
      ],
      "name": "exists",
      "outputs": [
        {
          "internalType": "bool",
          "name": "",
          "type": "bool"
        }
      ],
      "stateMutability": "view",
      "type": "function"
    },
    {
      "inputs": [
        {
          "internalType": "address",
          "name": "account",
          "type": "address"
        },
        {
          "internalType": "address",
          "name": "operator",
          "type": "address"
        }
      ],
      "name": "isApprovedForAll",
      "outputs": [
        {
          "internalType": "bool",
          "name": "",
          "type": "bool"
        }
      ],
      "stateMutability": "view",
      "type": "function"
    },
    {
      "inputs": [],
      "name": "metadataBaseURI",
      "outputs": [
        {
          "internalType": "string",
          "name": "",
          "type": "string"
        }
      ],
      "stateMutability": "view",
      "type": "function"
    },
    {
      "inputs": [
        {
          "internalType": "uint256",
          "name": "_id",
          "type": "uint256"
        }
      ],
      "name": "mint",
      "outputs": [
        {
          "internalType": "uint256",
          "name": "",
          "type": "uint256"
        }
      ],
      "stateMutability": "payable",
      "type": "function"
    },
    {
      "inputs": [],
      "name": "owner",
      "outputs": [
        {
          "internalType": "address",
          "name": "",
          "type": "address"
        }
      ],
      "stateMutability": "view",
      "type": "function"
    },
    {
      "inputs": [],
      "name": "pause",
      "outputs": [],
      "stateMutability": "nonpayable",
      "type": "function"
    },
    {
      "inputs": [],
      "name": "paused",
      "outputs": [
        {
          "internalType": "bool",
          "name": "",
          "type": "bool"
        }
      ],
      "stateMutability": "view",
      "type": "function"
    },
    {
      "inputs": [
        {
          "internalType": "uint256",
          "name": "_id",
          "type": "uint256"
        },
        {
          "internalType": "uint256",
          "name": "_supply",
          "type": "uint256"
        }
      ],
      "name": "registerToken",
      "outputs": [],
      "stateMutability": "nonpayable",
      "type": "function"
    },
    {
      "inputs": [],
      "name": "renounceOwnership",
      "outputs": [],
      "stateMutability": "nonpayable",
      "type": "function"
    },
    {
      "inputs": [
        {
          "internalType": "address",
          "name": "from",
          "type": "address"
        },
        {
          "internalType": "address",
          "name": "to",
          "type": "address"
        },
        {
          "internalType": "uint256[]",
          "name": "ids",
          "type": "uint256[]"
        },
        {
          "internalType": "uint256[]",
          "name": "amounts",
          "type": "uint256[]"
        },
        {
          "internalType": "bytes",
          "name": "data",
          "type": "bytes"
        }
      ],
      "name": "safeBatchTransferFrom",
      "outputs": [],
      "stateMutability": "nonpayable",
      "type": "function"
    },
    {
      "inputs": [
        {
          "internalType": "address",
          "name": "from",
          "type": "address"
        },
        {
          "internalType": "address",
          "name": "to",
          "type": "address"
        },
        {
          "internalType": "uint256",
          "name": "id",
          "type": "uint256"
        },
        {
          "internalType": "uint256",
          "name": "amount",
          "type": "uint256"
        },
        {
          "internalType": "bytes",
          "name": "data",
          "type": "bytes"
        }
      ],
      "name": "safeTransferFrom",
      "outputs": [],
      "stateMutability": "nonpayable",
      "type": "function"
    },
    {
      "inputs": [
        {
          "internalType": "address",
          "name": "operator",
          "type": "address"
        },
        {
          "internalType": "bool",
          "name": "approved",
          "type": "bool"
        }
      ],
      "name": "setApprovalForAll",
      "outputs": [],
      "stateMutability": "nonpayable",
      "type": "function"
    },
    {
      "inputs": [
        {
          "internalType": "string",
          "name": "_metadataBaseURI",
          "type": "string"
        }
      ],
      "name": "setUri",
      "outputs": [],
      "stateMutability": "nonpayable",
      "type": "function"
    },
    {
      "inputs": [
        {
          "internalType": "bytes4",
          "name": "interfaceId",
          "type": "bytes4"
        }
      ],
      "name": "supportsInterface",
      "outputs": [
        {
          "internalType": "bool",
          "name": "",
          "type": "bool"
        }
      ],
      "stateMutability": "view",
      "type": "function"
    },
    {
      "inputs": [
        {
          "internalType": "uint256",
          "name": "",
          "type": "uint256"
        }
      ],
      "name": "tokens",
      "outputs": [
        {
          "internalType": "uint256",
          "name": "supply",
          "type": "uint256"
        },
        {
          "internalType": "uint256",
          "name": "count",
          "type": "uint256"
        }
      ],
      "stateMutability": "view",
      "type": "function"
    },
    {
      "inputs": [
        {
          "internalType": "address",
          "name": "newOwner",
          "type": "address"
        }
      ],
      "name": "transferOwnership",
      "outputs": [],
      "stateMutability": "nonpayable",
      "type": "function"
    },
    {
      "inputs": [],
      "name": "unpause",
      "outputs": [],
      "stateMutability": "nonpayable",
      "type": "function"
    },
    {
      "inputs": [
        {
          "internalType": "uint256",
          "name": "_id",
          "type": "uint256"
        }
      ],
      "name": "uri",
      "outputs": [
        {
          "internalType": "string",
          "name": "",
          "type": "string"
        }
      ],
      "stateMutability": "view",
      "type": "function"
    }
  ],
  "transactionHash": "0x39b865b3c3e572abf7ecdb1de88e747852c72234c2ba983155a1bacdcf28454d",
  "args": [],
  "solcInputHash": "2caa7d18b65e6649222f3f0646fdf77c",
  "bytecode": "0x60806040523480156200001157600080fd5b506040805160208101909152600081526200002c816200004b565b50620000383362000064565b6003805460ff60a01b1916905562000199565b805162000060906002906020840190620000b6565b5050565b600380546001600160a01b038381166001600160a01b0319831681179093556040519116919082907f8be0079c531659141344cd1fd0a4f28419497f9722a3daafe3b4186f6b6457e090600090a35050565b828054620000c4906200015c565b90600052602060002090601f016020900481019282620000e8576000855562000133565b82601f106200010357805160ff191683800117855562000133565b8280016001018555821562000133579182015b828111156200013357825182559160200191906001019062000116565b506200014192915062000145565b5090565b5b8082111562000141576000815560010162000146565b600181811c908216806200017157607f821691505b602082108114156200019357634e487b7160e01b600052602260045260246000fd5b50919050565b6124b280620001a96000396000f3fe6080604052600436106101345760003560e01c8063715018a6116100ab578063a0712d681161006f578063a0712d681461038b578063a22cb4651461039e578063e985e9c5146103be578063f242432a14610407578063f2fde38b14610427578063f5298aca1461044757600080fd5b8063715018a6146103045780638456cb59146103195780638da5cb5b1461032e5780639b642de1146103565780639f3d1a2a1461037657600080fd5b80633f4ba83a116100fd5780633f4ba83a1461020b5780634e1273f4146102205780634f558e791461024d5780634f64b2be1461027c5780635c975abb146102c55780636b20c454146102e457600080fd5b8062fdd58e1461013957806301ffc9a71461016c5780630e89341c1461019c5780632eb2c2d6146101c95780633488da10146101eb575b600080fd5b34801561014557600080fd5b50610159610154366004611bdf565b610467565b6040519081526020015b60405180910390f35b34801561017857600080fd5b5061018c610187366004611d0d565b6104fe565b6040519015158152602001610163565b3480156101a857600080fd5b506101bc6101b7366004611d98565b61050f565b6040516101639190611fec565b3480156101d557600080fd5b506101e96101e4366004611a20565b610543565b005b3480156101f757600080fd5b506101e9610206366004611db1565b6105da565b34801561021757600080fd5b506101e96106c2565b34801561022c57600080fd5b5061024061023b366004611c3c565b6106f6565b6040516101639190611fb4565b34801561025957600080fd5b5061018c610268366004611d98565b600090815260056020526040902054151590565b34801561028857600080fd5b506102b0610297366004611d98565b6005602052600090815260409020805460019091015482565b60408051928352602083019190915201610163565b3480156102d157600080fd5b50600354600160a01b900460ff1661018c565b3480156102f057600080fd5b506101e96102ff366004611b2f565b610820565b34801561031057600080fd5b506101e9610868565b34801561032557600080fd5b506101e961089c565b34801561033a57600080fd5b506003546040516001600160a01b039091168152602001610163565b34801561036257600080fd5b506101e9610371366004611d47565b6108ce565b34801561038257600080fd5b506101bc61090f565b610159610399366004611d98565b61099d565b3480156103aa57600080fd5b506101e96103b9366004611ba3565b610a89565b3480156103ca57600080fd5b5061018c6103d93660046119ed565b6001600160a01b03918216600090815260016020908152604080832093909416825291909152205460ff1690565b34801561041357600080fd5b506101e9610422366004611aca565b610b60565b34801561043357600080fd5b506101e96104423660046119d2565b610ba5565b34801561045357600080fd5b506101e9610462366004611c09565b610c40565b60006001600160a01b0383166104d85760405162461bcd60e51b815260206004820152602b60248201527f455243313135353a2062616c616e636520717565727920666f7220746865207a60448201526a65726f206164647265737360a81b60648201526084015b60405180910390fd5b506000908152602081815260408083206001600160a01b03949094168352929052205490565b600061050982610c83565b92915050565b6060600461051c83610cd3565b60405160200161052d929190611e56565b6040516020818303038152906040529050919050565b6001600160a01b03851633148061055f575061055f85336103d9565b6105c65760405162461bcd60e51b815260206004820152603260248201527f455243313135353a207472616e736665722063616c6c6572206973206e6f74206044820152711bdddb995c881b9bdc88185c1c1c9bdd995960721b60648201526084016104cf565b6105d38585858585610de9565b5050505050565b6003546001600160a01b031633146106045760405162461bcd60e51b81526004016104cf906121a6565b600082815260056020526040902054156106605760405162461bcd60e51b815260206004820152601860248201527f746f6b656e20616c72656164792072656769737465726564000000000000000060448201526064016104cf565b600081116106b05760405162461bcd60e51b815260206004820152601d60248201527f737570706c79206d7573742062652067726561746572207468616e203000000060448201526064016104cf565b60009182526005602052604090912055565b6003546001600160a01b031633146106ec5760405162461bcd60e51b81526004016104cf906121a6565b6106f4610f85565b565b6060815183511461075b5760405162461bcd60e51b815260206004820152602960248201527f455243313135353a206163636f756e747320616e6420696473206c656e677468604482015268040dad2e6dac2e8c6d60bb1b60648201526084016104cf565b6000835167ffffffffffffffff811115610777576107776123aa565b6040519080825280602002602001820160405280156107a0578160200160208202803683370190505b50905060005b8451811015610818576107eb8582815181106107c4576107c4612394565b60200260200101518583815181106107de576107de612394565b6020026020010151610467565b8282815181106107fd576107fd612394565b602090810291909101015261081181612339565b90506107a6565b509392505050565b6001600160a01b03831633148061083c575061083c83336103d9565b6108585760405162461bcd60e51b81526004016104cf9061208b565b610863838383611022565b505050565b6003546001600160a01b031633146108925760405162461bcd60e51b81526004016104cf906121a6565b6106f4600061119e565b6003546001600160a01b031633146108c65760405162461bcd60e51b81526004016104cf906121a6565b6106f46111f0565b6003546001600160a01b031633146108f85760405162461bcd60e51b81526004016104cf906121a6565b805161090b906004906020840190611821565b5050565b6004805461091c906122d1565b80601f0160208091040260200160405190810160405280929190818152602001828054610948906122d1565b80156109955780601f1061096a57610100808354040283529160200191610995565b820191906000526020600020905b81548152906001019060200180831161097857829003601f168201915b505050505081565b6000818152600560205260408120546109ee5760405162461bcd60e51b81526020600482015260136024820152721d1bdad95b88191bd95cdb89dd08195e1a5cdd606a1b60448201526064016104cf565b6001600560008481526020019081526020016000206001016000828254610a159190612247565b9091555050600082815260056020526040902060018101549054811115610a6d5760405162461bcd60e51b815260206004820152600c60248201526b6f7574206f6620626f6e647360a01b60448201526064016104cf565b6105093384600160405180602001604052806000815250611278565b336001600160a01b0383161415610af45760405162461bcd60e51b815260206004820152602960248201527f455243313135353a2073657474696e6720617070726f76616c20737461747573604482015268103337b91039b2b63360b91b60648201526084016104cf565b3360008181526001602090815260408083206001600160a01b03871680855290835292819020805460ff191686151590811790915590519081529192917f17307eab39ab6107e8899845ad3d59bd9653f200f220920489ca2b5937696c31910160405180910390a35050565b6001600160a01b038516331480610b7c5750610b7c85336103d9565b610b985760405162461bcd60e51b81526004016104cf9061208b565b6105d38585858585611382565b6003546001600160a01b03163314610bcf5760405162461bcd60e51b81526004016104cf906121a6565b6001600160a01b038116610c345760405162461bcd60e51b815260206004820152602660248201527f4f776e61626c653a206e6577206f776e657220697320746865207a65726f206160448201526564647265737360d01b60648201526084016104cf565b610c3d8161119e565b50565b6001600160a01b038316331480610c5c5750610c5c83336103d9565b610c785760405162461bcd60e51b81526004016104cf9061208b565b61086383838361149f565b60006001600160e01b03198216636cdb3d1360e11b1480610cb457506001600160e01b031982166303a24d0760e21b145b8061050957506301ffc9a760e01b6001600160e01b0319831614610509565b606081610cf75750506040805180820190915260018152600360fc1b602082015290565b818060005b8215610d225780610d0c81612339565b9150610d1b9050600a8461225f565b9250610cfc565b60008167ffffffffffffffff811115610d3d57610d3d6123aa565b6040519080825280601f01601f191660200182016040528015610d67576020820181803683370190505b5090506000610d77600184612273565b90505b8315610ddf57610d8b600a85612354565b610d96906030612247565b60f81b8282610da4816122ba565b935081518110610db657610db6612394565b60200101906001600160f81b031916908160001a905350610dd8600a8561225f565b9350610d7a565b5095945050505050565b8151835114610e0a5760405162461bcd60e51b81526004016104cf906121db565b6001600160a01b038416610e305760405162461bcd60e51b81526004016104cf906120d4565b3360005b8451811015610f17576000858281518110610e5157610e51612394565b602002602001015190506000858381518110610e6f57610e6f612394565b602090810291909101810151600084815280835260408082206001600160a01b038e168352909352919091205490915081811015610ebf5760405162461bcd60e51b81526004016104cf9061215c565b6000838152602081815260408083206001600160a01b038e8116855292528083208585039055908b16825281208054849290610efc908490612247565b9250508190555050505080610f1090612339565b9050610e34565b50846001600160a01b0316866001600160a01b0316826001600160a01b03167f4a39dc06d4c0dbc64b70af90fd698a233a518aa5d07e595d983b8c0526c8f7fb8787604051610f67929190611fc7565b60405180910390a4610f7d8187878787876115a1565b505050505050565b600354600160a01b900460ff16610fd55760405162461bcd60e51b815260206004820152601460248201527314185d5cd8589b194e881b9bdd081c185d5cd95960621b60448201526064016104cf565b6003805460ff60a01b191690557f5db9ee0a495bf2e6ff9c91a7834c1ba4fdd244a5e8aa4e537bd38aeae4b073aa335b6040516001600160a01b03909116815260200160405180910390a1565b6001600160a01b0383166110485760405162461bcd60e51b81526004016104cf90612119565b80518251146110695760405162461bcd60e51b81526004016104cf906121db565b604080516020810190915260009081905233905b835181101561113f57600084828151811061109a5761109a612394565b6020026020010151905060008483815181106110b8576110b8612394565b602090810291909101810151600084815280835260408082206001600160a01b038c1683529093529190912054909150818110156111085760405162461bcd60e51b81526004016104cf90612047565b6000928352602083815260408085206001600160a01b038b168652909152909220910390558061113781612339565b91505061107d565b5060006001600160a01b0316846001600160a01b0316826001600160a01b03167f4a39dc06d4c0dbc64b70af90fd698a233a518aa5d07e595d983b8c0526c8f7fb8686604051611190929190611fc7565b60405180910390a450505050565b600380546001600160a01b038381166001600160a01b0319831681179093556040519116919082907f8be0079c531659141344cd1fd0a4f28419497f9722a3daafe3b4186f6b6457e090600090a35050565b600354600160a01b900460ff161561123d5760405162461bcd60e51b815260206004820152601060248201526f14185d5cd8589b194e881c185d5cd95960821b60448201526064016104cf565b6003805460ff60a01b1916600160a01b1790557f62e78cea01bee320cd4e420270b5ea74000d11b0c9f74754ebdbfc544b05a2586110053390565b6001600160a01b0384166112d85760405162461bcd60e51b815260206004820152602160248201527f455243313135353a206d696e7420746f20746865207a65726f206164647265736044820152607360f81b60648201526084016104cf565b336112f2816000876112e98861170c565b6105d38861170c565b6000848152602081815260408083206001600160a01b038916845290915281208054859290611322908490612247565b909155505060408051858152602081018590526001600160a01b0380881692600092918516917fc3d58168c5ae7397731d063d5bbf3d657854427343f4c083240f7aacaa2d0f62910160405180910390a46105d381600087878787611757565b6001600160a01b0384166113a85760405162461bcd60e51b81526004016104cf906120d4565b336113b88187876112e98861170c565b6000848152602081815260408083206001600160a01b038a168452909152902054838110156113f95760405162461bcd60e51b81526004016104cf9061215c565b6000858152602081815260408083206001600160a01b038b8116855292528083208785039055908816825281208054869290611436908490612247565b909155505060408051868152602081018690526001600160a01b03808916928a821692918616917fc3d58168c5ae7397731d063d5bbf3d657854427343f4c083240f7aacaa2d0f62910160405180910390a4611496828888888888611757565b50505050505050565b6001600160a01b0383166114c55760405162461bcd60e51b81526004016104cf90612119565b336114f5818560006114d68761170c565b6114df8761170c565b5050604080516020810190915260009052505050565b6000838152602081815260408083206001600160a01b0388168452909152902054828110156115365760405162461bcd60e51b81526004016104cf90612047565b6000848152602081815260408083206001600160a01b03898116808652918452828520888703905582518981529384018890529092908616917fc3d58168c5ae7397731d063d5bbf3d657854427343f4c083240f7aacaa2d0f62910160405180910390a45050505050565b6001600160a01b0384163b15610f7d5760405163bc197c8160e01b81526001600160a01b0385169063bc197c81906115e59089908990889088908890600401611f11565b602060405180830381600087803b1580156115ff57600080fd5b505af192505050801561162f575060408051601f3d908101601f1916820190925261162c91810190611d2a565b60015b6116dc5761163b6123c0565b806308c379a0141561167557506116506123dc565b8061165b5750611677565b8060405162461bcd60e51b81526004016104cf9190611fec565b505b60405162461bcd60e51b815260206004820152603460248201527f455243313135353a207472616e7366657220746f206e6f6e20455243313135356044820152732932b1b2b4bb32b91034b6b83632b6b2b73a32b960611b60648201526084016104cf565b6001600160e01b0319811663bc197c8160e01b146114965760405162461bcd60e51b81526004016104cf90611fff565b6040805160018082528183019092526060916000919060208083019080368337019050509050828160008151811061174657611746612394565b602090810291909101015292915050565b6001600160a01b0384163b15610f7d5760405163f23a6e6160e01b81526001600160a01b0385169063f23a6e619061179b9089908990889088908890600401611f6f565b602060405180830381600087803b1580156117b557600080fd5b505af19250505080156117e5575060408051601f3d908101601f191682019092526117e291810190611d2a565b60015b6117f15761163b6123c0565b6001600160e01b0319811663f23a6e6160e01b146114965760405162461bcd60e51b81526004016104cf90611fff565b82805461182d906122d1565b90600052602060002090601f01602090048101928261184f5760008555611895565b82601f1061186857805160ff1916838001178555611895565b82800160010185558215611895579182015b8281111561189557825182559160200191906001019061187a565b506118a19291506118a5565b5090565b5b808211156118a157600081556001016118a6565b600067ffffffffffffffff8311156118d4576118d46123aa565b6040516118eb601f8501601f19166020018261230c565b80915083815284848401111561190057600080fd5b83836020830137600060208583010152509392505050565b80356001600160a01b038116811461192f57600080fd5b919050565b600082601f83011261194557600080fd5b8135602061195282612223565b60405161195f828261230c565b8381528281019150858301600585901b8701840188101561197f57600080fd5b60005b8581101561199e57813584529284019290840190600101611982565b5090979650505050505050565b600082601f8301126119bc57600080fd5b6119cb838335602085016118ba565b9392505050565b6000602082840312156119e457600080fd5b6119cb82611918565b60008060408385031215611a0057600080fd5b611a0983611918565b9150611a1760208401611918565b90509250929050565b600080600080600060a08688031215611a3857600080fd5b611a4186611918565b9450611a4f60208701611918565b9350604086013567ffffffffffffffff80821115611a6c57600080fd5b611a7889838a01611934565b94506060880135915080821115611a8e57600080fd5b611a9a89838a01611934565b93506080880135915080821115611ab057600080fd5b50611abd888289016119ab565b9150509295509295909350565b600080600080600060a08688031215611ae257600080fd5b611aeb86611918565b9450611af960208701611918565b93506040860135925060608601359150608086013567ffffffffffffffff811115611b2357600080fd5b611abd888289016119ab565b600080600060608486031215611b4457600080fd5b611b4d84611918565b9250602084013567ffffffffffffffff80821115611b6a57600080fd5b611b7687838801611934565b93506040860135915080821115611b8c57600080fd5b50611b9986828701611934565b9150509250925092565b60008060408385031215611bb657600080fd5b611bbf83611918565b915060208301358015158114611bd457600080fd5b809150509250929050565b60008060408385031215611bf257600080fd5b611bfb83611918565b946020939093013593505050565b600080600060608486031215611c1e57600080fd5b611c2784611918565b95602085013595506040909401359392505050565b60008060408385031215611c4f57600080fd5b823567ffffffffffffffff80821115611c6757600080fd5b818501915085601f830112611c7b57600080fd5b81356020611c8882612223565b604051611c95828261230c565b8381528281019150858301600585901b870184018b1015611cb557600080fd5b600096505b84871015611cdf57611ccb81611918565b835260019690960195918301918301611cba565b5096505086013592505080821115611cf657600080fd5b50611d0385828601611934565b9150509250929050565b600060208284031215611d1f57600080fd5b81356119cb81612466565b600060208284031215611d3c57600080fd5b81516119cb81612466565b600060208284031215611d5957600080fd5b813567ffffffffffffffff811115611d7057600080fd5b8201601f81018413611d8157600080fd5b611d90848235602084016118ba565b949350505050565b600060208284031215611daa57600080fd5b5035919050565b60008060408385031215611dc457600080fd5b50508035926020909101359150565b600081518084526020808501945080840160005b83811015611e0357815187529582019590820190600101611de7565b509495945050505050565b60008151808452611e2681602086016020860161228a565b601f01601f19169290920160200192915050565b60008151611e4c81856020860161228a565b9290920192915050565b600080845481600182811c915080831680611e7257607f831692505b6020808410821415611e9257634e487b7160e01b86526022600452602486fd5b818015611ea65760018114611eb757611ee4565b60ff19861689528489019650611ee4565b60008b81526020902060005b86811015611edc5781548b820152908501908301611ec3565b505084890196505b505050505050611f08611ef78286611e3a565b64173539b7b760d91b815260050190565b95945050505050565b6001600160a01b0386811682528516602082015260a060408201819052600090611f3d90830186611dd3565b8281036060840152611f4f8186611dd3565b90508281036080840152611f638185611e0e565b98975050505050505050565b6001600160a01b03868116825285166020820152604081018490526060810183905260a060808201819052600090611fa990830184611e0e565b979650505050505050565b6020815260006119cb6020830184611dd3565b604081526000611fda6040830185611dd3565b8281036020840152611f088185611dd3565b6020815260006119cb6020830184611e0e565b60208082526028908201527f455243313135353a204552433131353552656365697665722072656a656374656040820152676420746f6b656e7360c01b606082015260800190565b60208082526024908201527f455243313135353a206275726e20616d6f756e7420657863656564732062616c604082015263616e636560e01b606082015260800190565b60208082526029908201527f455243313135353a2063616c6c6572206973206e6f74206f776e6572206e6f7260408201526808185c1c1c9bdd995960ba1b606082015260800190565b60208082526025908201527f455243313135353a207472616e7366657220746f20746865207a65726f206164604082015264647265737360d81b606082015260800190565b60208082526023908201527f455243313135353a206275726e2066726f6d20746865207a65726f206164647260408201526265737360e81b606082015260800190565b6020808252602a908201527f455243313135353a20696e73756666696369656e742062616c616e636520666f60408201526939103a3930b739b332b960b11b606082015260800190565b6020808252818101527f4f776e61626c653a2063616c6c6572206973206e6f7420746865206f776e6572604082015260600190565b60208082526028908201527f455243313135353a2069647320616e6420616d6f756e7473206c656e677468206040820152670dad2e6dac2e8c6d60c31b606082015260800190565b600067ffffffffffffffff82111561223d5761223d6123aa565b5060051b60200190565b6000821982111561225a5761225a612368565b500190565b60008261226e5761226e61237e565b500490565b60008282101561228557612285612368565b500390565b60005b838110156122a557818101518382015260200161228d565b838111156122b4576000848401525b50505050565b6000816122c9576122c9612368565b506000190190565b600181811c908216806122e557607f821691505b6020821081141561230657634e487b7160e01b600052602260045260246000fd5b50919050565b601f8201601f1916810167ffffffffffffffff81118282101715612332576123326123aa565b6040525050565b600060001982141561234d5761234d612368565b5060010190565b6000826123635761236361237e565b500690565b634e487b7160e01b600052601160045260246000fd5b634e487b7160e01b600052601260045260246000fd5b634e487b7160e01b600052603260045260246000fd5b634e487b7160e01b600052604160045260246000fd5b600060033d11156123d95760046000803e5060005160e01c5b90565b600060443d10156123ea5790565b6040516003193d81016004833e81513d67ffffffffffffffff816024840111818411171561241a57505050505090565b82850191508151818111156124325750505050505090565b843d870101602082850101111561244c5750505050505090565b61245b6020828601018761230c565b509095945050505050565b6001600160e01b031981168114610c3d57600080fdfea2646970667358221220e795f513b66cb644f2959ef1af7a46842a4311e9d9efb0117c9b18b1a8a23e4664736f6c63430008070033",
  "devdoc": {
    "kind": "dev",
    "methods": {
      "balanceOf(address,uint256)": {
        "details": "See {IERC1155-balanceOf}. Requirements: - `account` cannot be the zero address."
      },
      "balanceOfBatch(address[],uint256[])": {
        "details": "See {IERC1155-balanceOfBatch}. Requirements: - `accounts` and `ids` must have the same length."
      },
      "exists(uint256)": {
        "params": {
          "_id": "uint256 id of the token to verify"
        },
        "returns": {
          "_0": "bool"
        }
      },
      "isApprovedForAll(address,address)": {
        "details": "See {IERC1155-isApprovedForAll}."
      },
      "mint(uint256)": {
        "details": "_id must be registered with registerToken first",
        "params": {
          "_id": "uint256 id of the desired token"
        },
        "returns": {
          "_0": "uint256 instance id of the token minted"
        }
      },
      "owner()": {
        "details": "Returns the address of the current owner."
      },
      "pause()": {
        "details": "can only be called by the contract owner"
      },
      "paused()": {
        "details": "Returns true if the contract is paused, and false otherwise."
      },
      "registerToken(uint256,uint256)": {
        "details": "_id should not already be registered, _supply must be greater than 0",
        "params": {
          "_id": "uint256 id of the token to register, should be incremental",
          "_supply": "uint256 max circulating supply"
        }
      },
      "renounceOwnership()": {
        "details": "Leaves the contract without owner. It will not be possible to call `onlyOwner` functions anymore. Can only be called by the current owner. NOTE: Renouncing ownership will leave the contract without an owner, thereby removing any functionality that is only available to the owner."
      },
      "safeBatchTransferFrom(address,address,uint256[],uint256[],bytes)": {
        "details": "See {IERC1155-safeBatchTransferFrom}."
      },
      "safeTransferFrom(address,address,uint256,uint256,bytes)": {
        "details": "See {IERC1155-safeTransferFrom}."
      },
      "setApprovalForAll(address,bool)": {
        "details": "See {IERC1155-setApprovalForAll}."
      },
      "setUri(string)": {
        "params": {
          "_metadataBaseURI": "string ipfs hash pointing to the NFT metadatas"
        }
      },
      "supportsInterface(bytes4)": {
        "details": "See {IERC165-supportsInterface}."
      },
      "transferOwnership(address)": {
        "details": "Transfers ownership of the contract to a new account (`newOwner`). Can only be called by the current owner."
      },
      "unpause()": {
        "details": "can only be called by the contract owner"
      },
      "uri(uint256)": {
        "details": "URIs are defined in RFC 3986.      URIs are assumed to be deterministically generated based on token ID",
        "returns": {
          "_0": "URI string"
        }
      }
    },
    "version": 1
  },
  "userdoc": {
    "kind": "user",
    "methods": {
      "exists(uint256)": {
        "notice": "exists verifies a token of type _id is registered"
      },
      "mint(uint256)": {
        "notice": "mint creates a new token of type _id"
      },
      "pause()": {
        "notice": "pause sets the pause state to true"
      },
      "registerToken(uint256,uint256)": {
        "notice": "registerToken creates a new TokenData type for a given _id with a max _supply"
      },
      "setUri(string)": {
        "notice": "setUri replaces _uri with newUri"
      },
      "unpause()": {
        "notice": "unpause sets the contract state to Unpaused"
      },
      "uri(uint256)": {
        "notice": "A distinct Uniform Resource Identifier (URI) for a given token."
      }
    },
    "version": 1
  },
  "storageLayout": {
    "storage": [
      {
        "astId": 221,
        "contract": "contracts/Nowver.sol:Nowver",
        "label": "_balances",
        "offset": 0,
        "slot": "0",
        "type": "t_mapping(t_uint256,t_mapping(t_address,t_uint256))"
      },
      {
        "astId": 227,
        "contract": "contracts/Nowver.sol:Nowver",
        "label": "_operatorApprovals",
        "offset": 0,
        "slot": "1",
        "type": "t_mapping(t_address,t_mapping(t_address,t_bool))"
      },
      {
        "astId": 229,
        "contract": "contracts/Nowver.sol:Nowver",
        "label": "_uri",
        "offset": 0,
        "slot": "2",
        "type": "t_string_storage"
      },
      {
        "astId": 7,
        "contract": "contracts/Nowver.sol:Nowver",
        "label": "_owner",
        "offset": 0,
        "slot": "3",
        "type": "t_address"
      },
      {
        "astId": 121,
        "contract": "contracts/Nowver.sol:Nowver",
        "label": "_paused",
        "offset": 20,
        "slot": "3",
        "type": "t_bool"
      },
      {
        "astId": 1902,
        "contract": "contracts/Nowver.sol:Nowver",
        "label": "metadataBaseURI",
        "offset": 0,
        "slot": "4",
        "type": "t_string_storage"
      },
      {
        "astId": 1907,
        "contract": "contracts/Nowver.sol:Nowver",
        "label": "tokens",
        "offset": 0,
        "slot": "5",
        "type": "t_mapping(t_uint256,t_struct(TokenData)1885_storage)"
      },
      {
        "astId": 2069,
        "contract": "contracts/Nowver.sol:Nowver",
        "label": "__gap",
        "offset": 0,
        "slot": "6",
        "type": "t_array(t_uint256)47_storage"
      }
    ],
    "types": {
      "t_address": {
        "encoding": "inplace",
        "label": "address",
        "numberOfBytes": "20"
      },
      "t_array(t_uint256)47_storage": {
        "base": "t_uint256",
        "encoding": "inplace",
        "label": "uint256[47]",
        "numberOfBytes": "1504"
      },
      "t_bool": {
        "encoding": "inplace",
        "label": "bool",
        "numberOfBytes": "1"
      },
      "t_mapping(t_address,t_bool)": {
        "encoding": "mapping",
        "key": "t_address",
        "label": "mapping(address => bool)",
        "numberOfBytes": "32",
        "value": "t_bool"
      },
      "t_mapping(t_address,t_mapping(t_address,t_bool))": {
        "encoding": "mapping",
        "key": "t_address",
        "label": "mapping(address => mapping(address => bool))",
        "numberOfBytes": "32",
        "value": "t_mapping(t_address,t_bool)"
      },
      "t_mapping(t_address,t_uint256)": {
        "encoding": "mapping",
        "key": "t_address",
        "label": "mapping(address => uint256)",
        "numberOfBytes": "32",
        "value": "t_uint256"
      },
      "t_mapping(t_uint256,t_mapping(t_address,t_uint256))": {
        "encoding": "mapping",
        "key": "t_uint256",
        "label": "mapping(uint256 => mapping(address => uint256))",
        "numberOfBytes": "32",
        "value": "t_mapping(t_address,t_uint256)"
      },
      "t_mapping(t_uint256,t_struct(TokenData)1885_storage)": {
        "encoding": "mapping",
        "key": "t_uint256",
        "label": "mapping(uint256 => struct INowver.TokenData)",
        "numberOfBytes": "32",
        "value": "t_struct(TokenData)1885_storage"
      },
      "t_string_storage": {
        "encoding": "bytes",
        "label": "string",
        "numberOfBytes": "32"
      },
      "t_struct(TokenData)1885_storage": {
        "encoding": "inplace",
        "label": "struct INowver.TokenData",
        "members": [
          {
            "astId": 1882,
            "contract": "contracts/Nowver.sol:Nowver",
            "label": "supply",
            "offset": 0,
            "slot": "0",
            "type": "t_uint256"
          },
          {
            "astId": 1884,
            "contract": "contracts/Nowver.sol:Nowver",
            "label": "count",
            "offset": 0,
            "slot": "1",
            "type": "t_uint256"
          }
        ],
        "numberOfBytes": "64"
      },
      "t_uint256": {
        "encoding": "inplace",
        "label": "uint256",
        "numberOfBytes": "32"
      }
    }
  }
}